:1000000002308A00202A00000A108A100A11820792
:10001000543469346D34653420346F347534743439
:10002000213400340A108A100A11820743346834DC
:10003000653463346B34733475346D342034453433
:10004000723472346F347234213400340A108A10DE
:100050000A1182074E346F3420347234653473349D
:1000600070346F346E347334653400340A108A107F
:100070000A118207663472346F346D34203474345C
:10008000683465342034733465346E3473346F34BB
:100090007234003437308400000803195C280230C1
:1000A0008D008C018C0B52288D0B512897308C00C1
:1000B0008C0B5828800B4F2808003B1861288611AC
:1000C00062288615831686118312BB1869280612CA
:1000D0006A2806168316061283123B1971288612A7
:1000E00072288616831686128312BB197928061386
:1000F0007A28061783160613000083120615831646
:100100000611822883288312061183160611831292
:100110000800BC0183168615003083128619013051
:10012000BC048316061600308312061A01308C00B8
:1001300003108C0D0C08BC04831686160030831245
:10014000861A01308C008C0D8C0DFC308C050C084F
:10015000BC048316061700308312061B01308C0086
:100160008C0D8C0D8C0DF8308C050C08BC043C08F3
:100170008D000800831606110610861083120610E3
:100180008316061086150616861606178312861421
:1001900083168610000083120615831606110000D0
:1001A000831289200D08BB0006118316061100007A
:1001B0008312061583160611DD28831289200D0887
:1001C000BA0006118316061186110612861206134E
:1001D00083123B0E8C00F0308C050C083A048D0025
:1001E0000D08BA00BA1FF6288316C228B808031DE6
:1001F000FB280610FC280614831606100000831244
:1002000086108316861000008312061183160611CD
:100210008312390EBA000F30BA053A08BB005D20D0
:1002200039080F39BA00BB005D2008002830B30040
:100230000C30B4000130B5000630B600061183164C
:100240000611831206108316061083128610831679
:1002500086108611061286120613061106108610E5
:100260000F308312B7004A200130B2003208033C3D
:10027000031C42290330BB005D200530B7004A2033
:10028000B20A36290230BB005D200530B7004A2093
:10029000B2013208033C031C582933303207840072
:1002A0000008B700B8013708B900BA20B20A4929D6
:1002B000562A350B5C295F294030B6006029B6010B
:1002C00001303402B60736088038B700B801370865
:1002D000B900BA2008003308073A031979290B3A04
:1002E00003197E29063A03198629023A03198C2933
:1002F00091290130B400B50059219629B801013087
:10030000B900BA200230B7004A2096290130B40063
:100310000230B50059219629B8011030B900BA2031
:1003200096290130B8003308B900BA2008008316B6
:100330000510831205101930B7004A200514133038
:100340008C008C0BA129A429831605148312622A20
:100350001A308C008C0BAA2900000518BF293430F4
:100360008C008C0BB129B4290000051CBF2920305A
:100370008C008C0BB929BC29000001308D00632A48
:10038000B4012C1CC329B2013208073C031C082A03
:10039000B3010518D429B30A3308643C0318D229E1
:1003A0002C14D429D329C92913308C008C0BD629BD
:1003B000D9290518EC293208073CB50001308C001A
:1003C00035088D000319E82903108C0D8D0BE429E5
:1003D0000C08FF3AB405062A3208073CB500013084
:1003E0008C0035088D000319F92903108C0D8D0B35
:1003F000F5290C08B404051C062AB30A3308643C2A
:100400000318042A2C14062A052AFB29B20AC42937
:1004100034088D00080033088D0132020318132AB6
:1004200032088C001F2A8C010830B400B20D8C0DEC
:1004300033080C0203188C008D0DB40B162A08002B
:1004400003081F39830054309000653091006D30EF
:10045000920070309300203094003D3095002030A1
:1004600096003030970098002E30990030309A0076
:1004700020309B0043309C009D0152309E0048304C
:100480009F002030A000A100A2003D30A30020303A
:10049000A4003030A500A6002E30A7003030A80000
:1004A0002030A9002530AA00AB0116290C30B3007A
:1004B0006B210430B200FA30B7004A20B20B5B2A3D
:1004C0002C109729A8298D080319002BC0210D088D
:1004D000AF00C0210D08B000C0210D08AD00C02143
:1004E0000D08AE00C0210D08B1002C1C8A2A0C306A
:1004F000B3006B210530B4000130B5005921B201C1
:100500003208042000380319892AB20AB3006B218B
:10051000802AFF2A30082F072D072E073102031DDE
:10052000EE2A2D08B2000A30B3000B2230300D073E
:1005300097002D08B2000A30B3000B2230300C07B0
:1005400098002E08B2000A30B3000B2230300D079D
:100550009A002F08B2000A30B3000B2230300D078A
:10056000A5002F08B2000A30B3000B2230300C0770
:10057000A6003008B2000A30B3000B2230300D075D
:10058000A800DF309B000C30B3006B210130B400B9
:10059000B500592110308400003000040319D92A15
:1005A0000408B2000008B3006B2132088400840AFA
:1005B000CC2A0130B4000230B50059211E3084002D
:1005C000003000040319ED2A0408B2000008B3004B
:1005D0006B2132088400840AE02AFF2A0C30B30021
:1005E0006B210130B400B5005921B201320812204C
:1005F00000380319FF2AB20AB3006B21F62A212B17
:100600000C30B3006B210330B4000130B500592128
:10061000B2013208262000380319122BB20AB300A7
:100620006B21092B0130B4000230B5005921B20111
:100630003208362000380319212BB20AB3006B218F
:06064000182B592A63008B
:02400E00F23F7F
:00000001FF
;PIC16F84A
;CRC=08AB  CREATED="16-Apr-23 12:07"
